{
  "contractName": "HashedTimelockERC20",
  "abi": [
    {
      "anonymous": false,
      "inputs": [
        {
          "indexed": true,
          "internalType": "bytes32",
          "name": "contractId",
          "type": "bytes32"
        },
        {
          "indexed": true,
          "internalType": "address",
          "name": "sender",
          "type": "address"
        },
        {
          "indexed": false,
          "internalType": "address",
          "name": "tokenContract",
          "type": "address"
        },
        {
          "indexed": false,
          "internalType": "uint256",
          "name": "amount",
          "type": "uint256"
        },
        {
          "indexed": false,
          "internalType": "bytes32",
          "name": "hashlock",
          "type": "bytes32"
        },
        {
          "indexed": false,
          "internalType": "uint256",
          "name": "timelock",
          "type": "uint256"
        }
      ],
      "name": "HTLCERC20New",
      "type": "event"
    },
    {
      "anonymous": false,
      "inputs": [
        {
          "indexed": true,
          "internalType": "bytes32",
          "name": "contractId",
          "type": "bytes32"
        }
      ],
      "name": "HTLCERC20Refund",
      "type": "event"
    },
    {
      "anonymous": false,
      "inputs": [
        {
          "indexed": true,
          "internalType": "bytes32",
          "name": "contractId",
          "type": "bytes32"
        }
      ],
      "name": "HTLCERC20TimeLockExtended",
      "type": "event"
    },
    {
      "constant": false,
      "inputs": [
        {
          "internalType": "bytes32",
          "name": "_hashlock",
          "type": "bytes32"
        },
        {
          "internalType": "uint256",
          "name": "_timelock",
          "type": "uint256"
        },
        {
          "internalType": "address",
          "name": "_tokenContract",
          "type": "address"
        },
        {
          "internalType": "uint256",
          "name": "_amount",
          "type": "uint256"
        }
      ],
      "name": "newContract",
      "outputs": [
        {
          "internalType": "bytes32",
          "name": "contractId",
          "type": "bytes32"
        }
      ],
      "payable": false,
      "stateMutability": "nonpayable",
      "type": "function"
    },
    {
      "constant": false,
      "inputs": [
        {
          "internalType": "bytes32",
          "name": "_contractId",
          "type": "bytes32"
        },
        {
          "internalType": "bytes32",
          "name": "_preimage",
          "type": "bytes32"
        }
      ],
      "name": "refund",
      "outputs": [
        {
          "internalType": "bool",
          "name": "",
          "type": "bool"
        }
      ],
      "payable": false,
      "stateMutability": "nonpayable",
      "type": "function"
    },
    {
      "constant": false,
      "inputs": [
        {
          "internalType": "bytes32",
          "name": "_contractId",
          "type": "bytes32"
        },
        {
          "internalType": "bytes32",
          "name": "_preimage",
          "type": "bytes32"
        },
        {
          "internalType": "uint256",
          "name": "_timelock",
          "type": "uint256"
        }
      ],
      "name": "extendTimeLock",
      "outputs": [
        {
          "internalType": "bool",
          "name": "",
          "type": "bool"
        }
      ],
      "payable": false,
      "stateMutability": "nonpayable",
      "type": "function"
    },
    {
      "constant": true,
      "inputs": [
        {
          "internalType": "bytes32",
          "name": "_contractId",
          "type": "bytes32"
        }
      ],
      "name": "getContract",
      "outputs": [
        {
          "internalType": "address",
          "name": "sender",
          "type": "address"
        },
        {
          "internalType": "address",
          "name": "tokenContract",
          "type": "address"
        },
        {
          "internalType": "uint256",
          "name": "amount",
          "type": "uint256"
        },
        {
          "internalType": "bytes32",
          "name": "hashlock",
          "type": "bytes32"
        },
        {
          "internalType": "uint256",
          "name": "timelock",
          "type": "uint256"
        },
        {
          "internalType": "bool",
          "name": "refunded",
          "type": "bool"
        },
        {
          "internalType": "bytes32",
          "name": "preimage",
          "type": "bytes32"
        }
      ],
      "payable": false,
      "stateMutability": "view",
      "type": "function"
    }
  ],
  "bytecode": "0x608060405234801561001057600080fd5b506114f1806100206000396000f3fe608060405234801561001057600080fd5b506004361061004c5760003560e01c80631880da72146100515780637452df5e146100ab578063e16c7d9814610121578063e4683a79146101e9575b600080fd5b6100916004803603606081101561006757600080fd5b81019080803590602001909291908035906020019092919080359060200190929190505050610239565b604051808215151515815260200191505060405180910390f35b61010b600480360360808110156100c157600080fd5b810190808035906020019092919080359060200190929190803573ffffffffffffffffffffffffffffffffffffffff16906020019092919080359060200190929190505050610696565b6040518082815260200191505060405180910390f35b61014d6004803603602081101561013757600080fd5b8101908080359060200190929190505050610da1565b604051808873ffffffffffffffffffffffffffffffffffffffff1673ffffffffffffffffffffffffffffffffffffffff1681526020018773ffffffffffffffffffffffffffffffffffffffff1673ffffffffffffffffffffffffffffffffffffffff1681526020018681526020018581526020018481526020018315151515815260200182815260200197505050505050505060405180910390f35b61021f600480360360408110156101ff57600080fd5b810190808035906020019092919080359060200190929190505050610e97565b604051808215151515815260200191505060405180910390f35b600083610245816113c5565b6102b7576040517f08c379a00000000000000000000000000000000000000000000000000000000081526004018080602001828103825260198152602001807f636f6e7472616374496420646f6573206e6f742065786973740000000000000081525060200191505060405180910390fd5b8484600281604051602001808281526020019150506040516020818303038152906040526040518082805190602001908083835b6020831061030e57805182526020820191506020810190506020830392506102eb565b6001836020036101000a038019825116818451168082178552505050505050905001915050602060405180830381855afa158015610350573d6000803e3d6000fd5b5050506040513d602081101561036557600080fd5b810190808051906020019092919050505060008084815260200190815260200160002060030154146103ff576040517f08c379a000000000000000000000000000000000000000000000000000000000815260040180806020018281038252601c8152602001807f686173686c6f636b206861736820646f6573206e6f74206d617463680000000081525060200191505060405180910390fd5b84428111610458576040517f08c379a00000000000000000000000000000000000000000000000000000000081526004018080602001828103825260238152602001806114346023913960400191505060405180910390fd5b873373ffffffffffffffffffffffffffffffffffffffff1660008083815260200190815260200160002060000160009054906101000a900473ffffffffffffffffffffffffffffffffffffffff1673ffffffffffffffffffffffffffffffffffffffff161461052f576040517f08c379a00000000000000000000000000000000000000000000000000000000081526004018080602001828103825260168152602001807f726566756e6461626c653a206e6f742073656e6465720000000000000000000081525060200191505060405180910390fd5b6000151560008083815260200190815260200160002060050160009054906101000a900460ff161515146105cb576040517f08c379a000000000000000000000000000000000000000000000000000000000815260040180806020018281038252601c8152602001807f726566756e6461626c653a20616c726561647920726566756e6465640000000081525060200191505060405180910390fd5b42600080838152602001908152602001600020600401541115610639576040517f08c379a00000000000000000000000000000000000000000000000000000000081526004018080602001828103825260238152602001806114576023913960400191505060405180910390fd5b60008060008b81526020019081526020016000209050878160040181905550897f5c8eab8e297c18ca470e26a7d0d327f673dc4618c3b237852642c0db0e18f1fe60405160405180910390a2600196505050505050509392505050565b600082338360008111610711576040517f08c379a00000000000000000000000000000000000000000000000000000000081526004018080602001828103825260188152602001807f746f6b656e20616d6f756e74206d757374206265203e2030000000000000000081525060200191505060405180910390fd5b808373ffffffffffffffffffffffffffffffffffffffff1663dd62ed3e84306040518363ffffffff1660e01b8152600401808373ffffffffffffffffffffffffffffffffffffffff1673ffffffffffffffffffffffffffffffffffffffff1681526020018273ffffffffffffffffffffffffffffffffffffffff1673ffffffffffffffffffffffffffffffffffffffff1681526020019250505060206040518083038186803b1580156107c357600080fd5b505afa1580156107d7573d6000803e3d6000fd5b505050506040513d60208110156107ed57600080fd5b81019080805190602001909291905050501015610855576040517f08c379a000000000000000000000000000000000000000000000000000000000815260040180806020018281038252602181526020018061147a6021913960400191505060405180910390fd5b864281116108ae576040517f08c379a00000000000000000000000000000000000000000000000000000000081526004018080602001828103825260238152602001806114346023913960400191505060405180910390fd5b60023388888c8c604051602001808673ffffffffffffffffffffffffffffffffffffffff1673ffffffffffffffffffffffffffffffffffffffff1660601b81526014018573ffffffffffffffffffffffffffffffffffffffff1673ffffffffffffffffffffffffffffffffffffffff1660601b8152601401848152602001838152602001828152602001955050505050506040516020818303038152906040526040518082805190602001908083835b60208310610981578051825260208201915060208101905060208303925061095e565b6001836020036101000a038019825116818451168082178552505050505050905001915050602060405180830381855afa1580156109c3573d6000803e3d6000fd5b5050506040513d60208110156109d857600080fd5b810190808051906020019092919050505094506109f4856113c5565b15610a67576040517f08c379a00000000000000000000000000000000000000000000000000000000081526004018080602001828103825260178152602001807f436f6e747261637420616c72656164792065786973747300000000000000000081525060200191505060405180910390fd5b8673ffffffffffffffffffffffffffffffffffffffff166323b872dd3330896040518463ffffffff1660e01b8152600401808473ffffffffffffffffffffffffffffffffffffffff1673ffffffffffffffffffffffffffffffffffffffff1681526020018373ffffffffffffffffffffffffffffffffffffffff1673ffffffffffffffffffffffffffffffffffffffff1681526020018281526020019350505050602060405180830381600087803b158015610b2257600080fd5b505af1158015610b36573d6000803e3d6000fd5b505050506040513d6020811015610b4c57600080fd5b8101908080519060200190929190505050610bb2576040517f08c379a000000000000000000000000000000000000000000000000000000000815260040180806020018281038252602281526020018061149b6022913960400191505060405180910390fd5b6040518060e001604052803373ffffffffffffffffffffffffffffffffffffffff1681526020018873ffffffffffffffffffffffffffffffffffffffff1681526020018781526020018a81526020018981526020016000151581526020016000801b81525060008087815260200190815260200160002060008201518160000160006101000a81548173ffffffffffffffffffffffffffffffffffffffff021916908373ffffffffffffffffffffffffffffffffffffffff16021790555060208201518160010160006101000a81548173ffffffffffffffffffffffffffffffffffffffff021916908373ffffffffffffffffffffffffffffffffffffffff16021790555060408201518160020155606082015181600301556080820151816004015560a08201518160050160006101000a81548160ff02191690831515021790555060c082015181600601559050503373ffffffffffffffffffffffffffffffffffffffff16857f2cb56bec9a7c45b68601812b9fbd2174c95bf87d95d13bb0a2848b79d9d1809189898d8d604051808573ffffffffffffffffffffffffffffffffffffffff1673ffffffffffffffffffffffffffffffffffffffff16815260200184815260200183815260200182815260200194505050505060405180910390a350505050949350505050565b6000806000806000806000801515610db8896113c5565b15151415610df65760008060008060008060008696508595508494508360001b93508292508060001b90509650965096509650965096509650610e8c565b60008060008a815260200190815260200160002090508060000160009054906101000a900473ffffffffffffffffffffffffffffffffffffffff168160010160009054906101000a900473ffffffffffffffffffffffffffffffffffffffff168260020154836003015484600401548560050160009054906101000a900460ff1686600601549750975097509750975097509750505b919395979092949650565b600082610ea3816113c5565b610f15576040517f08c379a00000000000000000000000000000000000000000000000000000000081526004018080602001828103825260198152602001807f636f6e7472616374496420646f6573206e6f742065786973740000000000000081525060200191505060405180910390fd5b8383600281604051602001808281526020019150506040516020818303038152906040526040518082805190602001908083835b60208310610f6c5780518252602082019150602081019050602083039250610f49565b6001836020036101000a038019825116818451168082178552505050505050905001915050602060405180830381855afa158015610fae573d6000803e3d6000fd5b5050506040513d6020811015610fc357600080fd5b8101908080519060200190929190505050600080848152602001908152602001600020600301541461105d576040517f08c379a000000000000000000000000000000000000000000000000000000000815260040180806020018281038252601c8152602001807f686173686c6f636b206861736820646f6573206e6f74206d617463680000000081525060200191505060405180910390fd5b853373ffffffffffffffffffffffffffffffffffffffff1660008083815260200190815260200160002060000160009054906101000a900473ffffffffffffffffffffffffffffffffffffffff1673ffffffffffffffffffffffffffffffffffffffff1614611134576040517f08c379a00000000000000000000000000000000000000000000000000000000081526004018080602001828103825260168152602001807f726566756e6461626c653a206e6f742073656e6465720000000000000000000081525060200191505060405180910390fd5b6000151560008083815260200190815260200160002060050160009054906101000a900460ff161515146111d0576040517f08c379a000000000000000000000000000000000000000000000000000000000815260040180806020018281038252601c8152602001807f726566756e6461626c653a20616c726561647920726566756e6465640000000081525060200191505060405180910390fd5b4260008083815260200190815260200160002060040154111561123e576040517f08c379a00000000000000000000000000000000000000000000000000000000081526004018080602001828103825260238152602001806114576023913960400191505060405180910390fd5b6000806000898152602001908152602001600020905060018160050160006101000a81548160ff0219169083151502179055508681600601819055508060010160009054906101000a900473ffffffffffffffffffffffffffffffffffffffff1673ffffffffffffffffffffffffffffffffffffffff1663a9059cbb8260000160009054906101000a900473ffffffffffffffffffffffffffffffffffffffff1683600201546040518363ffffffff1660e01b8152600401808373ffffffffffffffffffffffffffffffffffffffff1673ffffffffffffffffffffffffffffffffffffffff16815260200182815260200192505050602060405180830381600087803b15801561134d57600080fd5b505af1158015611361573d6000803e3d6000fd5b505050506040513d602081101561137757600080fd5b810190808051906020019092919050505050877ff97bb6718c3bf29e51d27c00a46276abc2cf35c7f1d5a1c71bec2c82421bb83060405160405180910390a260019550505050505092915050565b60008073ffffffffffffffffffffffffffffffffffffffff1660008084815260200190815260200160002060000160009054906101000a900473ffffffffffffffffffffffffffffffffffffffff1673ffffffffffffffffffffffffffffffffffffffff161415905091905056fe74696d656c6f636b2074696d65206d75737420626520696e2074686520667574757265726566756e6461626c653a2074696d656c6f636b206e6f742079657420706173736564746f6b656e20616c6c6f77616e6365206d757374206265203e3d20616d6f756e747472616e7366657246726f6d2073656e64657220746f2074686973206661696c6564a265627a7a72315820a9266149b9396c7c785b70064afc96509faf233cbda9cf85af93e786fcaf396164736f6c63430005100032",
  "source": "pragma solidity >=0.5.0;\r\n\r\nimport \"openzeppelin-solidity/contracts/token/ERC20/ERC20.sol\";\r\n\r\n/**\r\n* @title Hashed Timelock Contracts (HTLCs) on Ethereum ERC20 tokens.\r\n*\r\n* This contract provides a way to create and keep HTLCs for $ONCE token.\r\n*\r\n*\r\n* Protocol:\r\n*\r\n*  1) newContract(hashlock, timelock, tokenContract, amount) - a\r\n*     sender calls this to create a new HTLC on a given token (tokenContract)\r\n*     for a given amount. A 32 byte contract id is returned\r\n*  3) refund() - after timelock has expired creator of the HTLC can get their tokens\r\n*     back with this function.\r\n*/\r\ncontract HashedTimelockERC20 {\r\n    event HTLCERC20New(\r\n        bytes32 indexed contractId,\r\n        address indexed sender,\r\n        address tokenContract,\r\n        uint256 amount,\r\n        bytes32 hashlock,\r\n        uint256 timelock\r\n    );\r\n    event HTLCERC20Refund(bytes32 indexed contractId);\r\n    event HTLCERC20TimeLockExtended(bytes32 indexed contractId);\r\n\r\n    struct LockContract {\r\n        address sender;\r\n        address tokenContract;\r\n        uint256 amount;\r\n        bytes32 hashlock;\r\n        // locked UNTIL this time. Unit depends on consensus algorithm.\r\n        // PoA, PoA and IBFT all use seconds. But Quorum Raft uses nano-seconds\r\n        uint256 timelock;\r\n        bool refunded;\r\n        bytes32 preimage;\r\n    }\r\n\r\n    modifier tokensTransferable(address _token, address _sender, uint256 _amount) {\r\n        require(_amount > 0, \"token amount must be > 0\");\r\n        require(\r\n            ERC20(_token).allowance(_sender, address(this)) >= _amount,\r\n            \"token allowance must be >= amount\"\r\n        );\r\n        _;\r\n    }\r\n    modifier futureTimelock(uint256 _time) {\r\n        // only requirement is the timelock time is after the last blocktime (now).\r\n        // probably want something a bit further in the future then this.\r\n        // but this is still a useful sanity check:\r\n        require(_time > now, \"timelock time must be in the future\");\r\n        _;\r\n    }\r\n    modifier contractExists(bytes32 _contractId) {\r\n        require(haveContract(_contractId), \"contractId does not exist\");\r\n        _;\r\n    }\r\n    modifier hashlockMatches(bytes32 _contractId, bytes32 _x) {\r\n        require(\r\n            contracts[_contractId].hashlock == sha256(abi.encodePacked(_x)),\r\n            \"hashlock hash does not match\"\r\n        );\r\n        _;\r\n    }\r\n    modifier refundable(bytes32 _contractId) {\r\n        require(contracts[_contractId].sender == msg.sender, \"refundable: not sender\");\r\n        require(contracts[_contractId].refunded == false, \"refundable: already refunded\");\r\n        require(contracts[_contractId].timelock <= now, \"refundable: timelock not yet passed\");\r\n        _;\r\n    }\r\n\r\n    mapping (bytes32 => LockContract) contracts;\r\n\r\n    /**\r\n     * @dev Sender sets up a new hash time lock contract depositing the\r\n     * funds and providing the hashlock.\r\n     *\r\n     * NOTE: Sender must first call approve() on the token contract.\r\n     *       See allowance check in tokensTransferable modifier.\r\n\r\n     * @param _hashlock A sha-2 sha256 hash hashlock.\r\n     * @param _timelock UNIX epoch seconds time that the lock expires at.\r\n     *                  Refunds can be made after this time.\r\n     * @param _tokenContract ERC20 Token contract address.\r\n     * @param _amount Amount of the token to lock up.\r\n     * @return contractId Id of the new HTLC. This is needed for subsequent calls.\r\n     *         \r\n     */\r\n    function newContract(\r\n        bytes32 _hashlock,\r\n        uint256 _timelock,\r\n        address _tokenContract,\r\n        uint256 _amount\r\n    )\r\n        external\r\n        tokensTransferable(_tokenContract, msg.sender, _amount)\r\n        futureTimelock(_timelock)\r\n        returns (bytes32 contractId)\r\n    {\r\n        contractId = sha256(\r\n            abi.encodePacked(\r\n                msg.sender,\r\n                _tokenContract,\r\n                _amount,\r\n                _hashlock,\r\n                _timelock\r\n            )\r\n        );\r\n\r\n        // Reject if a contract already exists with the same parameters. The\r\n        // sender must change one of these parameters (ideally providing a\r\n        // different _hashlock).\r\n        if (haveContract(contractId))\r\n            revert(\"Contract already exists\");\r\n\r\n        // This contract becomes the temporary owner of the tokens\r\n        if (!ERC20(_tokenContract).transferFrom(msg.sender, address(this), _amount))\r\n            revert(\"transferFrom sender to this failed\");\r\n\r\n        contracts[contractId] = LockContract(\r\n            msg.sender,\r\n            _tokenContract,\r\n            _amount,\r\n            _hashlock,\r\n            _timelock,\r\n            false,\r\n            0x0\r\n        );\r\n\r\n        emit HTLCERC20New(\r\n            contractId,\r\n            msg.sender,\r\n            _tokenContract,\r\n            _amount,\r\n            _hashlock,\r\n            _timelock\r\n        );\r\n    }\r\n\r\n    /**\r\n     * @dev Called by the sender when the time lock has\r\n     * expired. This will restore ownership of the tokens to the sender.\r\n     *\r\n     * @param _contractId Id of HTLC to refund from.\r\n     * @return bool true on success\r\n     */\r\n    function refund(bytes32 _contractId, bytes32 _preimage)\r\n        external\r\n        contractExists(_contractId)\r\n        hashlockMatches(_contractId, _preimage)\r\n        refundable(_contractId)\r\n        returns (bool)\r\n    {\r\n        LockContract storage c = contracts[_contractId];\r\n        c.refunded = true;\r\n        c.preimage = _preimage;\r\n        ERC20(c.tokenContract).transfer(c.sender, c.amount);\r\n        emit HTLCERC20Refund(_contractId);\r\n        return true;\r\n    }\r\n\r\n    /**\r\n     * @dev Called by the sender when the time lock has\r\n     * expired. This will restore ownership of the tokens to the sender.\r\n     *\r\n     * @param _contractId Id of HTLC to refund from.\r\n     * @param _timelock UNIX epoch seconds new time the lock expires at.\r\n     * @return bool true on success\r\n     */\r\n    function extendTimeLock(bytes32 _contractId, bytes32 _preimage, uint256 _timelock)\r\n        external\r\n        contractExists(_contractId)\r\n        hashlockMatches(_contractId, _preimage)\r\n        futureTimelock(_timelock)\r\n        refundable(_contractId)\r\n        returns (bool)\r\n    {\r\n        LockContract storage c = contracts[_contractId];\r\n        c.timelock = _timelock;\r\n        emit HTLCERC20TimeLockExtended(_contractId);\r\n        return true;\r\n    }\r\n\r\n    /**\r\n     * @dev Get contract details.\r\n     * @param _contractId HTLC contract id\r\n     * @return All parameters in struct LockContract for _contractId HTLC\r\n     */\r\n    function getContract(bytes32 _contractId)\r\n        public\r\n        view\r\n        returns (\r\n            address sender,\r\n            address tokenContract,\r\n            uint256 amount,\r\n            bytes32 hashlock,\r\n            uint256 timelock,\r\n            bool refunded,\r\n            bytes32 preimage\r\n        )\r\n    {\r\n        if (haveContract(_contractId) == false)\r\n            return (address(0), address(0), 0, 0, 0, false, 0);\r\n        LockContract storage c = contracts[_contractId];\r\n        return (\r\n            c.sender,\r\n            c.tokenContract,\r\n            c.amount,\r\n            c.hashlock,\r\n            c.timelock,\r\n            c.refunded,\r\n            c.preimage\r\n        );\r\n    }\r\n\r\n    /**\r\n     * @dev Is there a contract with id _contractId.\r\n     * @param _contractId Id into contracts mapping.\r\n     */\r\n    function haveContract(bytes32 _contractId)\r\n        internal\r\n        view\r\n        returns (bool exists)\r\n    {\r\n        exists = (contracts[_contractId].sender != address(0));\r\n    }\r\n\r\n}\r\n",
  "sourcePath": "C:/_once/oncehtlc/contracts/HashedTimelockERC20.sol",
  "compiler": {
    "name": "solc",
    "version": "0.5.16+commit.9c3226ce.Emscripten.clang"
  },
  "schemaVersion": "3.2.5",
  "updatedAt": "2020-10-01T19:31:15.895Z",
  "networkType": "ethereum",
  "devdoc": {
    "methods": {
      "extendTimeLock(bytes32,bytes32,uint256)": {
        "details": "Called by the sender when the time lock has expired. This will restore ownership of the tokens to the sender. ",
        "params": {
          "_contractId": "Id of HTLC to refund from.",
          "_timelock": "UNIX epoch seconds new time the lock expires at."
        },
        "return": "bool true on success"
      },
      "getContract(bytes32)": {
        "details": "Get contract details.",
        "params": {
          "_contractId": "HTLC contract id"
        },
        "return": "All parameters in struct LockContract for _contractId HTLC"
      },
      "newContract(bytes32,uint256,address,uint256)": {
        "details": "Sender sets up a new hash time lock contract depositing the funds and providing the hashlock.      * NOTE: Sender must first call approve() on the token contract.      See allowance check in tokensTransferable modifier.",
        "params": {
          "_amount": "Amount of the token to lock up.",
          "_hashlock": "A sha-2 sha256 hash hashlock.",
          "_timelock": "UNIX epoch seconds time that the lock expires at.                 Refunds can be made after this time.",
          "_tokenContract": "ERC20 Token contract address."
        },
        "return": "contractId Id of the new HTLC. This is needed for subsequent calls.        "
      },
      "refund(bytes32,bytes32)": {
        "details": "Called by the sender when the time lock has expired. This will restore ownership of the tokens to the sender. ",
        "params": {
          "_contractId": "Id of HTLC to refund from."
        },
        "return": "bool true on success"
      }
    },
    "title": "Hashed Timelock Contracts (HTLCs) on Ethereum ERC20 tokens.  * This contract provides a way to create and keep HTLCs for $ONCE token.  * Protocol:  *  1) newContract(hashlock, timelock, tokenContract, amount) - a    sender calls this to create a new HTLC on a given token (tokenContract)    for a given amount. A 32 byte contract id is returned 3) refund() - after timelock has expired creator of the HTLC can get their tokens    back with this function."
  },
  "userdoc": {
    "methods": {}
  }
}